:03000000022825AE
:1028250078FFE4F6D8FD9000007F007E20E4F0A359
:0A283500DFFCDEFA75815B02287AF1
:102BA1002D2D2D2D2D2D2D2D2D2D2D2D2D2D2D2D54
:102BB1002D2D2D2D2D2D2D2D0D0A0049206C6F76DB
:102BC10065204D4355212020202020004C434431D5
:0D2BD100363032205465737421202020001E
:102CBA00E4F593F594F591F592F595F596F5B1F558
:102CCA00B2F5B3F5B4F5C9F5CAF5CBF5CCF5E1F52E
:022CDA00E222F4
:102CDC00122CBA122D34E4FF122D9C122C8F1223BD
:102CEC00197BFF7A2B79A1121D0F7F007EE8022D34
:012CFC007760
:102D3400759850438E40538EFE53890F758BCC7516
:072D44008DFFC2ABD28E220D
:080003008F993099FDC299228A
:0F2D9C0053070375A204EF44DFF5CE75CDC022B7
:032DEA00C2FA2208
:032DED00D2FA22F5
:0E2DBA008FCFE5CD548060FA75CD80AFCF226B
:102D4B008F28C2CB122DEAAF28122DBA122DED7F90
:062D5B00057E00022B5D65
:102D61008F0CD2CB122DEAAF0C122DBA122DED7FA2
:062D7100057E00022B5D4F
:0A2B0F008B288A29892A8C2B8D2C33
:102B1900E4F52DF52ED2CB122DEAC3E52E952CE541
:102B29002B6480F8E52D648098501FAB28052AE5B1
:102B39002AAA297002052914F9121B13FF122DBAAA
:102B4900052EE52E70D4052D80D0122DED7F057E42
:042B590000022B5DEE
:102C8F00C2CA7F647E00122D77D2CA7F647E001283
:102C9F002D777FAF122D4B7FA1122D4B7FC8122D99
:0B2CAF004B7F81122D4B7F60022D4BEC
:052DDB007FA5022D4B55
:032DF000022B0FA4
:102D8A00E58954F04401F589E4F58AF58CD2A9D293
:022D9A008C2289
:03000B00022D19AA
:102D1900C0E0C083C082900DD5E004F07006900D2C
:0B2D2900D4E004F0D082D083D0E03270
:10274E00AB8C7811A603C28C00C2AF00AA8AAB8CE8
:10275E00900DD4E0FEA3E0FF308D050FBF00010EFB
:10276E0000D2AF00D28CE48F0B8E0AF509F508ADBE
:10277E0009AC087810121C278F0B8E0A8D098C0855
:10278E00AF03EFFEAD02EAFFE50B4FF50BE50A4E88
:10279E00F50AE509F509E508F508780D121C3AABBE
:1027AE000BAA0AA909A808C3121C16500DAF0BAE2E
:1027BE000AAD09AC08780D021C53780D121C46C3E5
:1027CE00E50B9BFFE50A9AFEE50999FDE50898FCE5
:1027DE00E47B347A07F9F8C3121C165039900DD0E9
:1027EE00E0FCA3E0FDA3E0FEA3E02401FFE43EFE37
:1027FE00E43DFDE43CFC900DD0121C5F780D121CE4
:10280E003AEF2434FFEE3407FEE43DFDE43CFC7861
:06281E000D121C5380A402
:012824002291
:0F2DAB00900DD0E0FCA3E0FDA3E0FEA3E0FF222B
:042DE0007F06DFFE8D
:012DE40022CC
:042DE5007F4EDFFE40
:012DE90022C7
:082DD2007F047E1BDEFEDFFC26
:012DDA0022D6
:092DC800007F207E28DEFEDFFC06
:012DD10022DF
:102D7700AD07AC06ED4C600A122DC8ED1D70F51CB1
:032D870080F222B5
:102B5D00AD07AC06C3ED9464EC9400400D122DD27C
:102B6D00749C2DFD74FF3CFC80EAC3ED940AEC943B
:102B7D0000400D122DE574F62DFD74FF3CFC80EA2E
:102B8D00D3ED9400EC9400400A122DE0ED1D70F091
:042B9D001C80ED2289
:10000E006F6C65645F7365745F706978656C206290
:10001E00616420706172616D73006F6C65645F6402
:10002E007261775F786C696E6520626164207061C1
:10003E0072616D730078203D2025752C2079203D4E
:10004E002025752C2068203D2025750D0A006F6C2B
:10005E0065645F647261775F796C696E6520626159
:10006E006420706172616D73006F6C65645F6472A1
:10007E0061775F6C696E6520626164207061726188
:10008E006D73006F6C65645F647261775F72656338
:10009E00742062616420706172616D73006F6C65B3
:1000AE00645F647261775F66726F6D5F62697463BD
:1000BE006F64652062616420706172616D73006FA0
:1000CE006C65645F647261775F434E206261642089
:1000DE00706172616D730D0A00FFFFFFFFFFFFFF7E
:1000EE00FFFFFFFFFFFFFFFFFFFFFFFFFFFFFFFF12
:1000FE00FFFFFFFFFFFFFFFFFFFFFFFFFFFFF1FF10
:10010E00FFFFFFFFFFFFE0FFFFFFFFFFFF7FE0FFAF
:10011E00FFFFFFFFFF1FE0FFFFFFFFFFFF0FF8FFD7
:10012E00FFFFFFFFFF01FEFFFFFFFFFF0F00FFFFBF
:10013E00FFFFFFFF0180FFFFFFFFFF3F00E0FFFF1C
:10014E00FFFFFF0700F8FFFFFFFFFF0020F8FFFF94
:10015E00FFFF0D003CFCFFFFFF7F00003FFCFFFF99
:10016E00FF3F00F01FFCFFFFFF3F00FC1FFCFFFFE7
:10017E00FF3F00FF1FFEFFFFFFFF03FC1FFEFFFF01
:10018E00FFFF0FF80FFEFFFFFFFF1FE00FFEFFFF49
:10019E00FFFF7FC00FFFFFFFFFFFFF010EFFFFFFFF
:1001AE00FFFFFF031CFFFFFFFFFFFF0710FFFFFF17
:1001BE00FFFFFF1FC0FFFFFFFFFFFF7F80FFFFFF5F
:1001CE00FFFFFFFF01FEFFFFFFFFFFFF07F0FFFF37
:1001DE00FFFFFFFF0FE0FFFFFFFFFFFF1F00FFFF0F
:1001EE00FFFFFFFF7F00FEFFFFFFFFFFFF03FEFF8E
:1001FE00FFFFFFFFFF0FFEFFFFFFFFFFFF3FFEFFB3
:10020E00FFFFFFFFFFFFFFFFFFFFFFFFFFFFFFFFF0
:10021E00FFFFFFFFFFFFFFFFFFFFFFFFFFFFFFFFE0
:10022E00FFFFFFFFFFFFFFFFFFFFFFFFFFFFFFFFD0
:10023E00FFFFFFFFFFFFFFFFFFFFFFFFFFFFFFFFC0
:10024E00FFFFFFFFFFFFFFFFFFFFFFFFFFFFEFFFC0
:10025E00FFFFFFFFFFFFC0FFFFFFFFFFFF3FC0FFDE
:10026E00FFFFFFFFFF1FC0FFFFFFFFFFFF0FC0FFDE
:10027E00FFFFFFFFFF07C0FFFFFFFFFFFF00C3FFF2
:10028E00FFFFFFFF7FC0C3FFFFFFFFFF0FE0C3FFB6
:10029E00FFFFFFFF03F0C3FFFFFFFFFF00FCC3FFE5
:1002AE00FFFFFF1F00FFC1FFFFFFFF03C0FFC1FFE6
:1002BE00FFFF1F00F8FFE1FFFFFF0300FEFFE1FF5E
:1002CE00FFFF0000FFFFE1FFFF7F0000FFFFE1FFE8
:1002DE00FF7F8007FFFFE1FFFF7FF007FFFFE1FFDA
:1002EE00FF7FF807FEFFE0FFFF7FF807FEFFF0FF3E
:1002FE00FF7FF807FEFFF0FFFF7FF803FEFFF0FF22
:10030E00FF7FF803FEFFF0FFFF7FF803FCFFF0FF17
:10031E00FF7FF803FC7FF0FFFF7FF801FC7FF8FF03
:10032E00FF7FF861F87FF8FFFF7FF061F87FF8FF3D
:10033E00FFFFE0E1F07FF8FFFFFFC0E1F03FF8FFC5
:10034E00FFFF01E0E03FFCFFFFFF03F0E13FFCFF9A
:10035E00FFFF07F0C11FFCFFFFFF0FF8C31FFCFFDD
:10036E00FFFFFFFF830FFEFFFFFFFFFF0706FFFFED
:10037E00FFFFFFFF0F00FFFFFFFFFFFF1F00FFFF4D
:10038E00FFFFFFFF1F80FFFFFFFFFFFF7FF0FFFF5D
:10039E00FFFFFFFFFFFFFFFFFFFFFFFFFFFFFFFF5F
:1003AE00FFFFFFFFFFFFFFFFFFFFFFFFFFFFFFFF4F
:1003BE00FFFFFFFFFFFFFFFFFFFFFFFFFFFFFFFF3F
:1003CE00FFFFFFFFFFFFFFFFFFFFFFFFFFFFFFFF2F
:1003DE00FFFFFFFFFFFFFFFFFFFFFFFFFFFFFFFF1F
:1003EE00FFFFFFFFFFFFFFFFFFFFFFFFFFFFFFFF0F
:1003FE00FFFFFFFFFFFFFFFFFFFFFFFFFFFFFFFFFF
:10040E00FFFFFFFF07E0FFFFFFFFFFFF00C0FFFF43
:10041E00FFFFFF3F0080FFFFFFFFFF1F0000FFFFFA
:10042E00FFFFFF0FF007FFFFFFFFFF01FC0FFFFFB6
:10043E00FFFFFF00FF0FFFFFFFFF7FC0FF0FFFFF5C
:10044E00FFFF3FE0FF0FFEFFFFFF1FF8FF1FFEFF46
:10045E00FFFF0FFEFF1FFEFFFFFF0FFFFF1FFEFF41
:10046E00FFFF07FFFF1FFEFFFFFF07FFFF1FFEFF40
:10047E00FFFF8FFFFF1FFEFFFFFF8FFFFF1FFEFF20
:10048E00FFFFFFFFFF1FFEFFFFFFFFFFFF1FFFFF2F
:10049E00FFFFFFFFFFBFFFFFFFFFFFFFFFFFFFFF9E
:1004AE00FFFFFFFFFFFFFFFFFFFFFFFFFFFFFFFF4E
:1004BE00FFFFFFFFFFFFFFFFFFFFFFFFFFFFFFFF3E
:1004CE00FFFFFFFFFFFFFFFFFFFFFFFFFFFFFFFF2E
:1004DE00FFFFFFFFFFFFFFFFFF0000000000000017
:1004EE0000000000000000000000000000000000FE
:1004FE00000000000000000000E01F0000000000EF
:10050E0000E0FF7F000000000060F8FFFF00000029
:10051E00000000C0FFFF01000000000000FFFF0709
:10052E00000000000000FCFF0F000000000000FCB7
:10053E000C000000000000C0090000000000008058
:10054E001B000000000000001F0000001000000053
:10055E000F0000001F0000000F0000E01F00000051
:10056E000E0000E00D0000000E0000600400000010
:10057E000F0000E0050000000F00008007000000E3
:10058E000F0000000F0000000F0000001C00000014
:10059E000700000018000000070000E00000000047
:1005AE00070000E00F000000070000E01F000080C1
:1005BE00070000C0800100800700008081010080DC
:1005CE000700008003020080070000C001020080C7
:1005DE00030000E000030080030000E00F00008035
:1005EE00030000800F00008003000000800300C0A5
:1005FE00030000E0010000C0030000E08F0000C017
:10060E00030000308E0100C001000030880100C0E0
:10061E0001000020880000C0010000608C0000C0B6
:10062E00010000E0070000C001000080070000E0AC
:10063E0001000000000100E001000010400100E098
:10064E00000000304F0000E0000000B04F0000E05E
:10065E00000000300E0000E000000030460000E018
:10066E0000000070020000E0000000F0C10000F089
:10067E00000000E0430000700000000086000070E3
:10068E0000000000C00000700000000000000070BC
:10069E00000000000000007000000000000000706C
:1006AE000000000000000070000000002000003874
:1006BE0000000000FE070038000000E0FFFF003CD5
:1006CE00000000FCFFFF1F3E0000C0FFFDFFFF1FEC
:1006DE000000ECFFFFFFFF1F00C0FEDFFFFFFF1F4C
:1006EE0000E0FEBBF7FFFF1F00E0FFFBFFBDF71FA3
:1006FE0000C07FFFBEF7FF3B00E077DFBFF7FE2FA6
:10070E0000E0E7DFF3DE7B2F00E0EEDDF7DE7B3D82
:10071E0000E0FE79DE7BEF7500C03DFFDFFBBD57CD
:10072E0000807FCF7BEFFD5E00B0E7FDFF79E7FB3A
:10073E0000E0EF79EF7BFDEF00E0BCEF7DEFF5BF62
:10074E0000C03CEFFDBDDFFB0090F73DEFF57EFFF7
:10075E0001B0E7FDBFF7FBFD01F0BCE7BDDCEFF735
:10076E0001E07DBFE775BEDF01B0E7FDBFD7FBFC43
:10077E000330FFEFFD7EBFEB03E03DBFF7FBFDBE99
:10078E0003E0F7FDDFEFF7FB0230EFE7F77E5FFFE9
:10079E0007F0BDBFDFEF77FD06E0FFFD5EBFDFFFB9
:1007AE000730FFE7F3FD7E7F07F0BD9FDFEFEBFF26
:1007BE000FE0F7FD7EBDBE7F0F30BFF7FFF5FBFAF2
:1007CE0008F0FDFD7EDFAFAF0FE8EFF7FBF5FDFFA5
:1007DE001B70BFFFEFDFC7AF19F8F97CBA7C7D7CC9
:1007EE001EF8EFDFEFD7D7D71FF8FF7EFE7E7DFD19
:1007FE0001E8EFF7EBD3D71F0078BF5FBF2EFF00E6
:10080E0000F8FDF2F9FB0F0000D8BF9FAF7F00008C
:10081E000078FDFEFD07000000E8C5DF3F00000088
:10082E000078BFFE0300000000F8E51F0000000086
:10083E000078FF010000000000F803000000000037
:10084E000038000000000000000000000000000062
:10085E00000000000000000000FFFFFFFFFFFFFF91
:10086E00FFFFFFFFFFFFFFFFFFFFFFFFFFFFFFFF8A
:10087E00FFFFFFFFFFFFFFFFFFFFFFFFFFFFFFFF7A
:10088E00FFFFFFFFFFFFFFFFFFFFFFFFFFFFFFFF6A
:10089E00FF7FFFFFFFFFFFFFFF7FFFFFFFFFFFFF5A
:1008AE00FF7FFEFFFFFFFFFFFF7F87FFEFFFFFFFD3
:1008BE00FFFFFFE0FFFFFFFFFFFFDF00F0FFFFFF87
:1008CE00FFFFBF00FCFFFFFDFFFF7D00DCCFFFFA47
:1008DE00FFFFFF00BCF770FFFFFFFF617CEF81FFA2
:1008EE00FFFF7FC2E8FE80FFFFFFBFC0F8FC00FFE6
:1008FE00FFFFBFC0DDF000FFFFFFFE84FDE001FF44
:10090E00FFFF7E80F5C003FEFFFFFC81BF8007FE68
:10091E00FFFFFC0FBB041FFEFFFFECFFE7083CFCD4
:10092E00FFFF7EFC7F3878FCFFFFBF807F70F0FCFE
:10093E00FFFF7F00F0F0E0F9FFFFFF00DCF081FF2A
:10094E00FFFFFF01B86300FFFFFFFFC37C07007EC0
:10095E00FFFFDFC2770E00FCFFFF7FC27F1E00008D
:10096E00FEFFFFC37F0600FCFFFFFF437C2300FF5B
:10097E00FFFFFF01F8E181FFFFFFFF00ECF0C1FB7D
:10098E00FFFFFF00FCF0E0F9FFFFFFE07F38F0FC17
:10099E00FFFF2EFFEF183CFCFFFFFC7FEF081EFC55
:1009AE00FFFFFC07BB040FFEFFFFFC81BF8007FEAD
:1009BE00FFFFFE89F5C003FEFFFFDF85DDF000FFC0
:1009CE00FFFFBFC1DD7801FFFFFFFFC4F8BC81FF51
:1009DE00FFFFFFC6F0FE81F7FFFFFF057CFFC1FFA3
:1009EE00FFFFFB06FC1BFFFFFFFFFF07FCF9FFFFEE
:1009FE00FFFFFF07F4FFFFFFFFFFFF0FF7FFEFFF04
:100A0E00FFFF77FC7FFFFFFFFF7FF2FFEFFFFFFF90
:100A1E00FF7FFEFFFFFFFFFFFF7FFFFFFFFFFFFFD9
:100A2E00FF7FFFFFFFFFFFFFFFFFFBFFFFFFFFFF4C
:100A3E00FFFFFFFFFFFFFFFFFFFFFFFFFFFFFFFFB8
:100A4E00FFFFFFFFFFFFFFFFFFFFFFFFFFFFFFFFA8
:100A5E00FFFFFFFFFFFFFFFFFFFFFFFFFFFFFFFF98
:100A6E00FFFFFFFFFFFFFFFFFFFFFFFFFFFFFFFF88
:100A7E00FFFFFDFFFFFFFFFFFFFFF9FFFFFFFFFF80
:100A8E00FFFFF1FFFFFFFFFFFFFFE1FFFFFFFFFF94
:100A9E00FFFF01FFFBFFFFFFFFFF01E0FFFFFFFF77
:100AAE00FFFF0100FCFFFFFFFFFF0100FCFFFFFF48
:100ABE00FFFF0100F8E1FBFFFFFF015CF80FF8FFFD
:100ACE00FFFFF998B90FF0FFFFFFFDB8690EE0FFC9
:100ADE00FFFFDF31FB0FE0FFFFFF1733FB0BC0FF04
:100AEE00FFFF0167FF0780FFFFFF0966FEFFFFFFA5
:100AFE00FFFF00ECFEFFFFFFFFFF00DCFCF700FC3A
:100B0E00FFFF0418ECFF01F8FFFF0430F8FB01FEB5
:100B1E00FFFFC4F0F9FF81DFFFFFC0E0FFFFE7F743
:100B2E00FF7FC0C1FEFFE7F8FF7FC0C3380026F885
:100B3E00FF7FC083F93F26F8FF7FC087FB3F26F873
:100B4E00FF7FC083F93F26F8FF7FC0C3380C26F81D
:100B5E00FFFFC0C1FEFFE7F8FFFFC0E0FFFFE7FBAE
:100B6E00FFFFC4F0F9FFC1EFFFFF0438D8FF01FE0D
:100B7E00FFFF0418CCFF01F8FFFF00CCDCFF01FCE7
:100B8E00FFFF08EED6FFFFFFFFFF0966DEFFFFFF48
:100B9E00FFFF0373DF0700FFFFFF9F33DB1B80FFA9
:100BAE00FFFFFFB9FB1FC0FFFFFFFDB8691EE0FF8F
:100BBE00FFFF71DCB91FF0FFFFFF011CD83FF8FFEC
:100BCE00FFFF0100F803FEFFFFFF0100FCFFFFFF28
:100BDE00FFFF0100FCFFF7FFFFFF01F0FFFFFFFF2C
:100BEE00FFFF81FFFFFFFFFFFFFFE1FFFBFFFFFFA7
:100BFE00FFFFF1FFFFFFFFFFFFFFF9FFFFFFFFFF0B
:100C0E00FFFFFFFFFFFFFFFFFFFFFFFFFFFFFFFFE6
:100C1E00FFFFFFFFFFFFFFFFFFFFFFFFFFFFFFFFD6
:100C2E00FFFFFFFFFFFFFFFFFFFFFFFFFFFFFFFFC6
:100C3E00FFFFFFFFFFFFFFFFFFFFFFFFFFFFFFFFB6
:090C4E00FFFFFFFFFFFFFFFFFFA6
:100C570061B0042008F808000008F808203F2101C7
:100C670001213F200000808080800000001F222299
:100C770022221300000808F8000000000020203F8F
:100C870020200000000808F8000000000020203F96
:100C9700202000000000808080800000001F2020AE
:100CA70020201F00000000000000000000000000DE
:100CB7000000000080800080008080800F300C03DF
:100CC7000C300F000000808080800000001F202073
:100CD70020201F00808080008080800020203F210E
:100CE70020000100000808F8000000000020203F55
:100CF70020200000000000808088F800000E1120EE
:100D070020103F20000000000000000080B07000AD
:100D170000000000180808F8080818000000203F25
:100D27002000000008F8008080800000203F21009C
:100D370000203F2000809898000000000020203FFE
:100D47002020000000008080808080000033242461
:100D5700242419000000000000000000000000002B
:100D67000000000000809898000000000020203F4D
:100D77002020000000008080808080000033242431
:100D870024241900000000000000000000000000FB
:100D970000000000000080808080000000192422ED
:100DA70022223F2000000000000000000000000099
:100DB70000000000008080E0808000000000001F2D
:100DC700202000000000808080800000001F222279
:100DD70022221300000080808080800000332424BA
:100DE70024241900008080E0808000000000001F9C
:100DF70020200000000000F8000000000000003381
:100E070030000000640005D0000000000000000072
:100E17000000000000000000000000C0F8F8F060CB
:100E2700400000000000000000000000000000007B
:100E370000000000000000000000000000000000AB
:100E4700000000000000000000000000000000009B
:100E5700000000000080C0E0F8FEFFFF171310102D
:100E67001010F0F0F0101010101010F0F0F010103B
:100E770010101010F0F0F0F0181C1F1E1C181000B6
:100E8700000000000000000000000000000000005B
:100E97002030180C07030301FFFFFFFF00000000CD
:100EA7000000FFFFFF000000000000FFFFFF000041
:100EB70000000000FFFFFFFF00000000000000002F
:100EC7000000000000000000000000000000000813
:100ED7001838381818181818FFFFFFFF18181818AF
:100EE7001818FFFFFF181818181818FFFFFF181811
:100EF70018181818FFFFFFFF181818181C1E1F1EB8
:100F07001C100000000000000000000000000000AE
:100F17000000000000000000FFFFFFFF00000000CE
:100F27000000FFFFFF000000000000FFFFFF0000C0
:100F370000000000FFFFFFFF0000000000000000AE
:100F47000000000000000000000000000008181862
:100F570018080808080888080F0F0F0F08080888DE
:100F670008080F0F0F0808080808088F8F0F0808D0
:100F7700080808080F0F0F0F08C888080C0E0F0F76
:100F87000E0C0800000000000000000000000080B8
:100F970080C0E0F8FC3F03000000000000000001F3
:100FA700073EFCF8F0C000000000000001071E7EAD
:100FB700FCF8F0C000000000000001070F7EFCF8FD
:100FC700F0C0000000000000000000000000070F54
:100FD7000F0F0703000000000000000000000000E2
:100FE7000000070F070300000000000000000000DA
:100FF70003070301000000000000000000000307D2
:1010070003010000000000000000000000000000D5
:1010170000000000000000001030E0E0C0C08000C9
:10102700000000000000C0F8F8F070200000000089
:1010370000000000000000000000000000000000A9
:101047000000000000000000000000000000000099
:10105700000000000000000000000001071F0F064D
:1010670000000080F0FEFF3F0F01000000000000BD
:10107700000000000080C0C08000000000000000E9
:101087000000000000000000000000000000000059
:1010970001030303010101010101010101010181B3
:1010A700C1F9FF3F0F070101010101010101010121
:1010B700010101C1F9FF7F0F03030080C080000019
:1010C7000000000000000000000000000000000019
:1010D7000000000000000000000000C0E0F87E1FD4
:1010E7000F0706060606060606060606060606068F
:1010F700060606070707060686E6FFFF3F070706F9
:1011070000000000000000000000000000000000D8
:101117000000000000C0E0F0783E1F0F0F0C0C0C21
:101127000C0C0C0C0C0C0C0C0C0C0C0C0C0C0C0CF8
:101137000C0C8C8C0C0C0C0C0F0F0F0C0C0C0CFEED
:10114700FFFF1E0C08000000000000000080C060C8
:1011570030381C0E07030100C0F0FC000000000639
:101167001C78F8F0E0C000000103060E3CF8F8F028
:10117700C0000001030F3EFCF8F000000000FEFF76
:10118700FF3F000000000000000000020101000016
:1011970000000060F0F87E7F3F0F000000000000B5
:1011A7000000010F1F1F0F000000000000000307D1
:1011B700010000808000000101000080C0FEFFFFE9
:1011C7001F000000000000000000000000000000F9
:1011D7000000000000000000000000000000000008
:1011E70000000000000000000000000000000000F8
:1011F7000000000001010303070F1F1F1F0F070156
:101207000000000000000000640009D0000000009A
:1012170000002020202020202020E0E02020202087
:10122700202020303830200000000000000040401F
:1012370040404040404040404040FFFF40C04040A9
:1012470040404040406070604000000000000000E7
:1012570000000000000080C0703E0F0000030C304B
:10126700E080000000000000000000000000404097
:1012770020301008040603010000000000000000F1
:10128700000103060E1C3838101010000000002063
:1012970020202020202020202020E0E020202020C7
:1012A70020202020202030383020000000000000BF
:1012B70000000000000000000000FFFF1020206079
:1012C700C0C0808000000000000000000000000097
:1012D70000000000000000000000FFFF0000000009
:1012E70000000103070E00000000000000000000DE
:1012F700000000000000000000007F3F0000000029
:1013070000000000000000000000000000000000D6
:1013170000000000000000000000FCFC08000000C6
:101327000000000000000000000000000000040CA6
:10133700040404040404040404C4FF3F043CC40478
:10134700040404040404060604000000000000006E
:10135700000000000080C0707C8F83000000030E37
:101367003870C080000000000000000000404020EE
:101377001010080402030100000001030F1E000003
:1013870000000103070E1C3C1808000000000000C5
:101397001010901010101010101010F0F010101006
:1013A70010101090901818100000000000000000A6
:1013B70000000001063E3C00000000FFFF00004067
:1013C70020180E07030180C0C08000000000010143
:1013D7000101010101010101010101FFFF010101FA
:1013E70001010101010100000000000000000000F0
:1013F70000000000000000000000003F3F00000068
:1014070000000000000000000000000000000000D5
:101417000000E0E00000000000FCF8080000000009
:101427000000FCF808000000000000000000101099
:101437001010FFFF1010101010FFFF1010101010E9
:101447001010FFFF1010181C1C18100000000000DF
:101457000000FFFF0000000000FFFF404040404049
:101467004040FFFF000000000000000000000000F7
:1014770000003F3F20202020202121202020202065
:101487002020212120201018181000000000000043
:10149700000000F8F0101010101010F0F0101010ED
:1014A70010101010F81800000000000000000000E5
:1014B7000000007F3F212121A1E1613F1F2121E1A0
:1014C700A12121213F000000000000000000404052
:1014D70020201010080C06C3FF1C000000000000AD
:1014E700FDFB06040C0C1818180808000000004043
:1014F7004040201010080E0301000000000000000B
:101507007F3F000000000000000000000000000016
:1015170080808080808498F8F08080808080E0B828
:101527009C88888080C0C080000000000000000008
:101537000000101010101010101010FFFF101010E6
:10154700101010080C0880C0800000000000011176
:10155700111111111111111111D1FD3F35519111B6
:1015670011111111111911010101000000000040B2
:10157700402020201018080C07030000000001037A
:10158700060C0C18383030703010000000000000D6
:10159700000000FC78080000000000202020202028
:1015A70020202020A0E0706000000000000202025E
:1015B70002E2FF0F020202F2FF0600000000000035
:1015C70000FCFC0201000000800000000000002079
:1015D7003C274040C0E0FE8F0001010101010101ED
:1015E70001FFFF010101010101010000004040204E
:1015F70010080C0603010103070E0000101030301D
:0C160700703F1F00000000000000000009
:042CFD00AD07AC066D
:102D0100ED781FCEA2E713CE13D8F8FFEC6EFCEDE1
:072D11006FC39FFFEC9EFE63
:012D18002298
:102C1A00E4FFEFC3940874809480502EE4FEEEC360
:102C2A00948474809480501F75F084EFA42400F576
:102C3A0082E5F03400F583E5822EF582E43583F5EA
:0A2C4A008374FFF00E80D70F80C8DE
:012C5400225D
:102C5500E4FFEFC3940874809480502DE4FEEEC326
:102C6500948474809480501E75F084EFA42400F53C
:102C750082E5F03400F583E5822EF582E43583F5AF
:092C850083E4F00E80D80F80C931
:012C8E002223
:102BDE00E4F526C3E526940874809480502DE526EE
:102BEE0024B0FF122D4BE4FF122D4B7F10122D4BF4
:102BFE00E52675F084A42400F9740035F0FA7B0103
:0B2C0E007D847C00122DF0052680C89C
:012C19002298
:102ABA008F3E8D3FD3EF948474809480500AE53F13
:102ACA0094407480948040097BFF7A00790E021D3D
:102ADA000FE53F131313541F75F084A42400F582E5
:102AEA00E5F03400F583E582253EF582E43583F589
:102AFA0083E0FFE53F5407FEF87401088002C33300
:052B0A00D8FC4FF02291
:032DF300022ABAF7
:062A5B008F2B8D2C8B2D4A
:102A6100D3EF9484748094805014E52D9484748001
:102A71009480500AE52C94407480948040097BFF37
:102A81007A007928021D0FE52B252DFFE433FED3B3
:102A9100EF9484EE6480948040067484952BF52D28
:102AA100E4F52EE52EC3952D500EE52B252EFFAD19
:082AB1002C122DF3052E80EB21
:012AB90022FA
:0428BF007B087D38DD
:0628C3008F2A8D2B8B2CE7
:1028C9007BFF7A007943852A43852B44852C451261
:1028D9001D0FD3E52A9484748094805014E52C94B8
:1028E9004074809480500AE52B9440748094804011
:1028F900097BFF7A00795C021D0F7BFF7A0079431F
:10290900852A43852B44852C45121D0FE52B252C43
:10291900FFE433FED3EF9440EE6480948040067464
:1029290040952BF52C7BFF7A007943852A43852B2B
:1029390044852C45121D0FE4F52DE52DC3952C502A
:0F2949000EE52B252DFDAF2A122DF3052D80EB6A
:01295800225C
:06250B008F268D278B28AE
:10251100D3EF948474809480501EE5289484748051
:1025210094805014E527944074809480500AE529E2
:1025310094407480948040097BFF7A007977021D72
:102541000FC3E5289526F9C3E5299527F52AFF7ECE
:1025510000122CFDAA06AB07E9FF7E00122CFDD369
:10256100EF9BEA6480F8EE6480984004E9FF800202
:10257100AF2A7E00122CFD8F2BAF01AC07E412179E
:10258100B6C004C005C006C007AC2BE41217B6A83C
:1025910004A905AA06AB07D007D006D005D00412BE
:1025A100170F8F308E2F8D2E8C2DAC2AE41217B67B
:1025B100C004C005C006C007AC2BE41217B6A804BE
:1025C100A905AA06AB07D007D006D005D00412177B
:1025D1000F8F348E338D328C31AC26E41217B68FC7
:1025E100388E378D368C35AC27E41217B68F3C8E7A
:1025F1003B8D3A8C39752C01E52CD3952B506BE42E
:10260100FFFEFD7C3FAB38AA37A936A83512161B51
:102611001217EAC007E4FFFEFD7C3FAB3CAA3BA9D1
:102621003AA83912161B1217EAAD07D007122DF37B
:10263100AF38AE37AD36AC35AB30AA2FA92EA82DA9
:1026410012161B8F388E378D368C35AF3CAE3BADB5
:102651003AAC39AB34AA33A932A83112161B8F3CDC
:0A2661008E3B8D3A8C39052C808EDB
:01266B00224C
:102959008F268D278B287E00D3EF948474809480F2
:102969005047AD287C00ED948474809480503AEFF0
:102979002DFFEE33FED3EF9484EE648094805029CA
:10298900AF277E00EF944074809480501CAD29EDF0
:102999009440748094805011EF2DFFEE33FED3EFF5
:1029A9009440EE6480948040097BFF7A007991021B
:1029B9001D0FAB28AD27AF26122A5BE5272529FD78
:1029C900AB28AF26122A5BAB29AD27AF261228C345
:0D29D900E5262528FFAB29AD271228C322D3
:0629E6008F268D278B28CF
:1029EC0085272A7E00D3EF9484748094805031EF35
:1029FC002528FFEE33FED3EF9484EE648094805050
:102A0C001FAF277E00EF9440748094805012EF2506
:102A1C0029FFEE33FED3EF9440EE6480948040099E
:102A2C007BFF7A007991021D0FE5272529FFE433FE
:102A3C00FEC3E52A9FEE6480F87480985010E52759
:0E2A4C00252AFDAB28AF26122A5B052A80DB67
:012A5A002259
:03266C00E4FDFF8B
:06266F008F268D278B2849
:10267500D3EF9484748094805021E527944074802E
:10268500948040028015D3E528948474809480500A
:102695000AE52994407480948040097BFF7A00798B
:1026A500AB021D0F85282F852930E5262528FFE457
:1026B50033FED3EF9484EE64809480400674849551
:1026C50026F528E5272529FFE433FED3EF9484EE8C
:1026D50064809480400674849529F529E5282407AB
:1026E500FFE433FEEF7803CEC313CE13D8F9F531EB
:1026F500E4F52DE52DC39528504EE4F52EE52EC3C2
:1027050095295040E52E131313541FAB2AAA2BA964
:102715002CF58275830075F008E52D121C6B121BD4
:102725002CFFE52E5407FEF8EF088002C313D8FCF2
:1027350030E00DE526252DFFE527252EFD122DF38D
:08274500052E80B9052D80ABC3
:01274D002269
:06211C008F268D278B28A1
:102122007E00D3EF9484748094805044ED94407484
:10213200809480503BAD287C00ED94847480948020
:10214200502EE5299440748094805024EF2DFFEEA8
:1021520033FED3EF9484EE648094805013E52725F8
:1021620029FFEC33FED3EF9440EE64809480400963
:102172007BFF7A0079CD021D0FE52AFB7A006420ED
:102182007013E5288529F0A4AEF07803CEC313CEF0
:1021920013D8F98031EB64104A701AE5288529F0CA
:1021A200A4AEF07803CEC313CE13D8F9FDAC067EED
:1021B200017FB08018E5288529F0A4AEF07803CE1F
:1021C200C313CE13D8F9FDAC067E047F00121B7D2B
:1021D2008E388F39E4F53AF53BC3E53B9539E5385E
:1021E2006480F8E53A6480984003022318E52AFDEA
:1021F2007C0064207014AE3AE53B7807C333CE33DB
:10220200CED8F924D0F97409802BED64104C7018E3
:10221200E53BC4F8540FC868FFE53AC454F048FEE1
:1022220074202FF97404800DE53B7F0025E0FEEF5A
:1022320024D0F974053E753501F5368937E4F52B5E
:10224200F52CAF287E00C3E52C9F7480F8652B988F
:10225200400302230DAC3AAD3B121B6BE52C2FFF62
:10226200EF547F2526F530E433F52FE4F52DF52ED6
:10227200C3E52E95297480F8652D98400302230248
:10228200E528FB7A00AC3AAD3BFF7E00121B6B7C6B
:10229200007D80121BD2AD297C00121B6BAD27E59D
:1022A2002E2527CDEC352DCD2FF532ED3EF531AE75
:1022B2002DE52E7803CEA2E713CE13D8F8FDAC0697
:1022C200AF03AE02121B6BAB35E5372FF9E5363E95
:1022D200FAE9252CF9EA352BFA121B13FFE52E54E5
:1022E20007FEF8EF088002C313D8FC30E007AF30D6
:1022F200AD32122DF3052EE52E7002052D0222724B
:10230200052CE52C7002052B022244053BE53B70AF
:0623120002053A0221DB86
:0123180022A2
:102319007FE87E03122D77122C557FE87E03122D5C
:1023290077122C1A122BDE7FE87E03122D77122CDE
:10233900557B3CE4FDFF122A5B7B507D08E4FF12CC
:102349002A5B7B5A7D10E4FF122A5B7B647D18E4CB
:10235900FF122A5B7B6E7D20E4FF122A5B7B787D6E
:1023690028E4FF122A5B7B827D30E4FF122A5B7B23
:10237900847D38E4FF122A5B122BDE7FE87E03128C
:102389002D77122C557B40E4FD7F021228C37B4038
:10239900E4FD7F0C1228C37B387D087F161228C301
:1023A9007B307D107F201228C37B287D187F2A125D
:1023B90028C37B207D207F341228C37B187D287F8A
:1023C9003E1228C37B107D307F481228C37F5212EA
:1023D90028BF7F5C1228BF7B087D387F661228C31F
:1023E9007B087D387F701228C37B087D387F7A127D
:1023F90028C3122BDE7FE87E03122D77122C557528
:1024090029407B42E4FD7F0212250B7529407B029E
:10241900E4FD7F4212250B122BDE7FE87E03122D8D
:1024290077122C557529327B3CE4FD7F021229591C
:10243900122BDE7FE87E03122D77122C5575293277
:102449007B3CE4FD7F281229E6122BDE7FE87E0320
:10245900122D77122C55752940752AFF752B007599
:102469002CE77B8012266C122BDE7FE87E03122D6F
:1024790077122C55752940752AFF752B04752CE7A1
:102489007B7012266C122BDE7FE87E03122D7712E9
:102499002C55752940752AFF752B08752C677B7E8D
:1024A900E4FDFF12266F122BDE7FE87E03122D77E3
:1024B900122C55752940752A407B40E4FDFF1221F5
:1024C9001C122BDE7FE87E03122D77122C557529FD
:1024D90020752A207B20E4FDFF12211C122BDE7FB0
:1024E900E87E03122D77122C55752910752A107B59
:1024F90008E4FD7F0212211C122BDE7F207E4E0292
:022509002D772C
:10161400021856E86480F8E933E83360110460F096
:10162400ED33EC337009E8FCE9FDEAFEEBFF22043C
:1016340060DED3EB9FEA9EE99DE8C2E78CF0C2F737
:1016440095F0400CE8CCF8E9CDF9EACEFAEBCFFB03
:1016540012182185D0F05804700320D5B3E8047023
:10166400075002B2D502186092D5EC0460F7E4CCBE
:10167400C0E0C398F8603B94186008400DD0E0FBCC
:10168400021838E4FBFAC9FC8028E830E406E4C90F
:10169400FBE4CAFCE830E305E4C9CACBFCE8540720
:1016A4006010F8C3E913F9EA13FAEB13FBEC13FC2B
:1016B400D8F130F52FC3E49CFCEF9BFFEE9AFEEDCE
:1016C40099FDD0E0FBEF4E4D4C701222DB03021863
:1016D4005DEC2CFCEF33FFEE33FEED33FDED30E734
:1016E400EB021838EF2BFFEE3AFEED39FDD0E0FBAC
:1016F40050130BBB0003021860ED13FDEE13FEEF55
:0817040013FFEC13FC0218387E
:10170C00021860EC5D046005E85904700302185679
:10171C00121821580460F6EC4860F2EC7004FDFEDF
:10172C00FF22C860DB2481C85009C39860025006B0
:10173C0002185D9850CAF582E9294B4A7005AB82B4
:10174C0002184C75F0007C1A7880C3EF9BEE9AED72
:10175C0099400DC3EF9BFFEE9AFEED99FDE842F028
:10176C00DC23ACF0D0E0FFD0E0FED0E0FDAB82207B
:10177C00E7101BEB60BAEC2CFCEF33FFEE33FEED05
:10178C0033FD021838E803F830E705C0F075F000B7
:10179C00EF2FFFEE33FEED33FD40B830E7C280AAE9
:1017AC0075F020800E75F010800575F0087D007EB8
:1017BC00007F003392D530D503121C08EC33401057
:1017CC00EF33FFEE33FEED33FDEC33FCD5F0ED22C1
:0E17DC00E5F0247EA2D513CC92E7CDCEFF22FD
:1017EA00EDD2E7CD33EC3392D524814006E4FFFEF7
:1017FA00FDFC22FCE4CFCECDCC24E0501174FF8056
:10180A00EDC3CC13CCCD13CDCE13CECF13CF0470F2
:07181A00F030D5DE021C08CE
:101CAD00E5572443F8E6055722784030070278437C
:101CBD00E475F001121C77021B132000EB7F2ED26E
:101CCD00008018EF540F2490D43440D4FF30040B0F
:101CDD00EF24BFB41A0050032461FFE558600215CC
:101CED0058055BE55B7002055A30070D7840E475C9
:101CFD00F001121C77EF021B590200037403D20787
:101D0D008003E4C207F5578B408A418942E4F558B8
:101D1D00F55AF55BE55860077F20121CE880F575D4
:101D2D0059FFC201C200C202C203C205C206C208E7
:101D3D00121CB6FF700D3007057F00121CF9AF5B4A
:101D4D00AE5A22B4255FC2D5C204121CB6FF24D0F0
:101D5D00B40A00501A75F00A785830D50508B6FF48
:101D6D000106C6A426F620D5047002D20380D9241C
:101D7D00CFB41A00EF5004C2E5D204021FE6D2011F
:101D8D0080C6D20080C0D20280BCD2D580BAD20526
:101D9D0080B47F20121CE82002077401B558004062
:101DAD00F1121CADFF121CE8021D21D208D20680D3
:101DBD0095121CADFB121CADFA121CADF94A4B70FD
:101DCD000679DD7A207BFF20022EE558602A7E0001
:101DDD008E82758300121B2C60060EEE655970F015
:101DED00C2D5EBC0E0EAC0E0E9C0E0EE122046D07B
:101DFD00E0F9D0E0FAD0E0FB121B13FF60AAEBC0B4
:101E0D00E0EAC0E0E9C0E0121CE8D0E02401F9D01E
:101E1D00E03400FAD0E0FBE5590460DCD559D980F7
:101E2D0087D20280A212202960F7E55970010412B1
:101E3D00186BA959600DE559600914F5591220D098
:101E4D00EF60F3EA30E702F404C3995077EAF42522
:101E5D00590430E701E404F559800D12202960C1C1
:101E6D00EA0559255912186BEA7856F630E701E460
:101E7D00255904D5590420050114122046E4C0E06B
:101E8D001220D07856E6601320E70714F6121CD006
:101E9D00802204F6D0E014C0E07F00121CD0E5597A
:101EAD006007121CC71559800B300503121CC7D0D3
:101EBD00E0021D21D0E00480C512202960A0E55963
:101ECD000412186B7856EAF6E559200502600104F4
:051EDD00240412204660
:101EE20074FF04C0E01220D0121CD0E55920050274
:101EF2006003121CC7D0E0B559E87F45121CDA789E
:101F020056E67F2B30E7047F2DF404C0E0121CE874
:101F1200D0E075F00A84C0F0121CD1D0E0121CD1BE
:101F2200021D21791080027908C206C2088008D2F7
:101F3200D5790A8004790AC2D5E559047002F559A7
:101F4200E4FAFDFEFF121CADFC7B08200113121CFB
:101F5200ADFD7B1030000A121CADFE121CADFF7BE2
:101F620020EC3382D592D55013C3E43000069FFF94
:101F7200E49EFEE42001039DFDE49CFCE4CBF8C258
:101F820001EC700CCFCECDCCE824F8F870F38017BA
:101F9200C3EF33FFEE33FEED33FDEC33FCEB33FBEB
:101FA200994002FB0FD8E9EB300105F8D0E0C448B4
:101FB200B201C0E00AEC4D4E4F78207B0070C2EABD
:101FC200B5590040BCC0E0122048D0F0D0E020015A
:101FD20004C4C0E0C4B201C0F0121CD1D0F0D5F0EC
:101FE200EB021D21121C871DBE531F25581D8F4C4D
:101FF2001D8B421F294F1F31441F31491DA4431F0E
:1020020037551E68461EC6451E324720FD501D9399
:102012002D1D972E1DBA2B1D9B231DB82020E62AAD
:102022001D534800001DB2E559B4FF03755906124D
:102032001CADFC121CADFD121CADFE121CADFF78D6
:102042004F02189A790AA2D5200314300509B91053
:10205200020404B9080104A2D5200602500104209A
:1020620002689202B558005034C0E07F2030031954
:102072007F30A20272067205500F12209FC202C266
:1020820006C205C2087F30800F300503E9C0E012A6
:102092001CE8300503D0E0F9D0E0B558CC30051784
:1020A2007F30B9100C121CE87F583004077F78800B
:1020B20003B90803121CE83002057F2D021CE87FD9
:1020C200202008F87F2B2006F322920280CF7F0087
:1020D200B407005005244FF8E6FF22286E756C6C99
:1020E2002900D201121CAD3001F8C201785830D556
:1020F2000108F6021D532D50434958121CAD24030A
:10210200B405004001E49020F893121CD9743A12ED
:0A2112001CD9D203755804021F25E2
:10182100E9D2E7C933E833F892D5EDD2E7CD33EC0D
:0718310033FC5002B2D52286
:10183800EC30E7100FBF000C0EBE00080DBD000411
:101848000BEB6014A2D5EB13FCED92E7FD2274FFBD
:10185800FCFDFEFF22E480F8A2D574FF13FC7D8016
:03186800E480EF2A
:10186B00F920E72824F950037907E4F42402FB1844
:10187B00DBFDE624FB5014E9600DE4F618E604F6F4
:0F188B00B40A08E4F6D9F57401F60A22C2D52290
:10189A00ED33EC3392D5FA602AB4FF33EDC2E77B1D
:1018AA00FF60067A1879BFE4227A1879C820D5042D
:1018BA007A1879C3224E614E002B494E46002D49B3
:1018CA004E4600E47A08F608DAFC7B00740722E840
:1018DA00C0E0ECC0E0EDC0E0EEC0E0EFC0E0EA75C9
:1018EA00F010A4CAABF075F04DA42BFBE435F0FC64
:1018FA00EA2410FAEB34C5FBEC34D9FCEDC2E7FF5D
:10190A0075F056A4F42411C5F0F434C58FF0A42A56
:10191A00E5F03BE43CF620E714121AD3D0E0FFD0FE
:10192A00E0FED0E0FDD0E0FC12170F8014F40412A0
:10193A001AD3D0E0FFD0E0FED0E0FDD0E0FC1219CF
:10194A009DD0E0F8E6FAEDD2E7CD33EC332482FB02
:10195A00E4C3CF33CFCE33CECD33CD33DBF37B07E6
:10196A0075F00A846004F6081B0AE5F0F6088FF0A1
:10197A00740AA4FFACF08EF0740AA42CFEACF050EA
:10198A00010C8DF0740AA42CFDE435F0F608DBDEB8
:03199A00740722AD
:10199D00EC4D6011E8497017ED33EC3304600DE444
:1019AD00FCFFFEFD22E933E8330470F802185612ED
:1019BD00182158046009E4CC2481500628500902EE
:1019CD00186028400302185DC0E0EB4A7044B980EE
:1019DD0006D0E0FB02184CEF4E701CBD8008EBFFEB
:1019ED00EAFEE9FD80EBE98DF0A4FEE5F0021A8632
:1019FD00E9CDF9EAFEEBFFEF89F0A4FCE5F0CE8925
:101A0D00F0A42EFFE435F0CD89F0A42DFEE435F0E1
:101A1D008067EF4E7005BD80D780C3EF8BF0A4AC0F
:101A2D00F0EE8BF0A42CFCE435F0F8EF8AF0A42C4A
:101A3D00E5F038FCE433CB8DF0A42CFCE5F03BF85D
:101A4D00EE8AF0A42CFCE5F038F8E433CF89F0A44D
:101A5D002CFCE5F038CF3400CE89F0A42FFFE5F053
:101A6D003EFEE433C98DF0A42EFEE5F039CD8AF0AB
:101A7D00A42FFFE5F03EFEE43DFD33D0E0FB500723
:101A8D000BBB000F021860EC2CFCEF33FFEE33FEA6
:061A9D00ED33FD021838D4
:101AA3003F8000004120000042C80000447A00004B
:101AB300461C400047C35000497424004B189680CD
:101AC3004CBEBC205A0E1BCA6753C21C749DC5AEC4
:101AD300FB60065407601C2323121B01EB54386080
:101AE30009121AED121AFC12199DECF8EDF9EEFA2F
:101AF300EFCB22EB121AFC80F1543803241C901A0A
:101B0300A3FE93FC0EEE93FD0EEE930ECE93FF22F7
:10283F00022CDCE493A3F8E493A34003F68001F2A7
:10284F0008DFF48029E493A3F85407240CC8C3339A
:10285F00C4540F4420C8834004F456800146F6DF69
:10286F00E4800B0102040810204080900C57E47E96
:10287F00019360BCA3FF543F30E509541FFEE4935E
:10288F00A360010ECF54C025E060A840B8E493A325
:10289F00FAE493A3F8E493A3C8C582C8CAC583CA50
:1028AF00F0A3C8C582C8CAC583CADFE9DEE780BE08
:0116130000D6
:101B1300BB010689828A83E0225002E722BBFE02D0
:091B2300E32289828A83E4932203
:101B2C00BB010CE58229F582E5833AF583E022506E
:101B3C0006E92582F8E622BBFE06E92582F8E222B8
:0D1B4C00E58229F582E5833AF583E49322D2
:101B5900BB010689828A83F0225002F722BBFE016B
:021B6900F32265
:101B6B00EF8DF0A4A8F0CF8CF0A428CE8DF0A42E8E
:021B7B00FE2248
:101B7D00BC000BBE0029EF8DF084FFADF022E4CC4C
:101B8D00F875F008EF2FFFEE33FEEC33FCEE9DEC15
:101B9D00984005FCEE9DFE0FD5F0E9E4CEFD22ED5B
:101BAD00F8F5F0EE8420D21CFEADF075F008EF2FA5
:101BBD00FFED33FD4007985006D5F0F222C398FD96
:051BCD000FD5F0EA2233
:101BD200C2D5EC30E709B2D5E4C39DFDE49CFCEE2E
:101BE20030E715B2D5E4C39FFFE49EFE121B7DC30E
:101BF200E49DFDE49CFC8003121B7D30D507C3E409
:061C02009FFFE49EFE229C
:0E1C0800C3E49FFFE49EFEE49DFDE49CFC22ED
:101C1600EB9FF5F0EA9E42F0E99D42F0E89C45F024
:011C2600229B
:101C2700E8600FEFC333FFEE33FEED33FDEC33FC1B
:031C3700D8F122BF
:0C1C3A00E6FC08E6FD08E6FE08E6FF22D6
:0D1C4600E6FB08E6F908E6FA08E6CBF8220E
:0C1C5300ECF608EDF608EEF608EFF622BD
:0C1C5F00ECF0A3EDF0A3EEF0A3EFF022F8
:0C1C6B00A42582F582E5F03583F5832284
:101C7700FAE6FB0808E6F925F0F618E6CA3AF6226E
:101C8700D083D082F8E4937012740193700DA3A3EC
:101C970093F8740193F5828883E473740293686000
:061CA700EFA3A3A380DF00
:00000001FF
